{
  "_format": "hh-sol-artifact-1",
  "contractName": "certificateNft",
  "sourceName": "contracts/certificateNft.sol",
  "abi": [
    {
      "inputs": [],
      "stateMutability": "nonpayable",
      "type": "constructor"
    },
    {
      "anonymous": false,
      "inputs": [
        {
          "indexed": true,
          "internalType": "address",
          "name": "owner",
          "type": "address"
        },
        {
          "indexed": true,
          "internalType": "address",
          "name": "approved",
          "type": "address"
        },
        {
          "indexed": true,
          "internalType": "uint256",
          "name": "tokenId",
          "type": "uint256"
        }
      ],
      "name": "Approval",
      "type": "event"
    },
    {
      "anonymous": false,
      "inputs": [
        {
          "indexed": true,
          "internalType": "address",
          "name": "owner",
          "type": "address"
        },
        {
          "indexed": true,
          "internalType": "address",
          "name": "operator",
          "type": "address"
        },
        {
          "indexed": false,
          "internalType": "bool",
          "name": "approved",
          "type": "bool"
        }
      ],
      "name": "ApprovalForAll",
      "type": "event"
    },
    {
      "anonymous": false,
      "inputs": [
        {
          "indexed": true,
          "internalType": "address",
          "name": "from",
          "type": "address"
        },
        {
          "indexed": true,
          "internalType": "address",
          "name": "to",
          "type": "address"
        },
        {
          "indexed": true,
          "internalType": "uint256",
          "name": "tokenId",
          "type": "uint256"
        }
      ],
      "name": "Transfer",
      "type": "event"
    },
    {
      "inputs": [],
      "name": "TOKEN_URI",
      "outputs": [
        {
          "internalType": "string",
          "name": "",
          "type": "string"
        }
      ],
      "stateMutability": "view",
      "type": "function"
    },
    {
      "inputs": [
        {
          "internalType": "address",
          "name": "to",
          "type": "address"
        },
        {
          "internalType": "uint256",
          "name": "tokenId",
          "type": "uint256"
        }
      ],
      "name": "approve",
      "outputs": [],
      "stateMutability": "nonpayable",
      "type": "function"
    },
    {
      "inputs": [
        {
          "internalType": "address",
          "name": "owner",
          "type": "address"
        }
      ],
      "name": "balanceOf",
      "outputs": [
        {
          "internalType": "uint256",
          "name": "",
          "type": "uint256"
        }
      ],
      "stateMutability": "view",
      "type": "function"
    },
    {
      "inputs": [
        {
          "internalType": "uint256",
          "name": "tokenId",
          "type": "uint256"
        }
      ],
      "name": "getApproved",
      "outputs": [
        {
          "internalType": "address",
          "name": "",
          "type": "address"
        }
      ],
      "stateMutability": "view",
      "type": "function"
    },
    {
      "inputs": [],
      "name": "getTokenId",
      "outputs": [
        {
          "internalType": "uint256",
          "name": "",
          "type": "uint256"
        }
      ],
      "stateMutability": "view",
      "type": "function"
    },
    {
      "inputs": [
        {
          "internalType": "address",
          "name": "owner",
          "type": "address"
        },
        {
          "internalType": "address",
          "name": "operator",
          "type": "address"
        }
      ],
      "name": "isApprovedForAll",
      "outputs": [
        {
          "internalType": "bool",
          "name": "",
          "type": "bool"
        }
      ],
      "stateMutability": "view",
      "type": "function"
    },
    {
      "inputs": [],
      "name": "mintNft",
      "outputs": [
        {
          "internalType": "uint256",
          "name": "",
          "type": "uint256"
        }
      ],
      "stateMutability": "nonpayable",
      "type": "function"
    },
    {
      "inputs": [],
      "name": "name",
      "outputs": [
        {
          "internalType": "string",
          "name": "",
          "type": "string"
        }
      ],
      "stateMutability": "view",
      "type": "function"
    },
    {
      "inputs": [
        {
          "internalType": "uint256",
          "name": "tokenId",
          "type": "uint256"
        }
      ],
      "name": "ownerOf",
      "outputs": [
        {
          "internalType": "address",
          "name": "",
          "type": "address"
        }
      ],
      "stateMutability": "view",
      "type": "function"
    },
    {
      "inputs": [
        {
          "internalType": "address",
          "name": "from",
          "type": "address"
        },
        {
          "internalType": "address",
          "name": "to",
          "type": "address"
        },
        {
          "internalType": "uint256",
          "name": "tokenId",
          "type": "uint256"
        }
      ],
      "name": "safeTransferFrom",
      "outputs": [],
      "stateMutability": "nonpayable",
      "type": "function"
    },
    {
      "inputs": [
        {
          "internalType": "address",
          "name": "from",
          "type": "address"
        },
        {
          "internalType": "address",
          "name": "to",
          "type": "address"
        },
        {
          "internalType": "uint256",
          "name": "tokenId",
          "type": "uint256"
        },
        {
          "internalType": "bytes",
          "name": "data",
          "type": "bytes"
        }
      ],
      "name": "safeTransferFrom",
      "outputs": [],
      "stateMutability": "nonpayable",
      "type": "function"
    },
    {
      "inputs": [
        {
          "internalType": "address",
          "name": "operator",
          "type": "address"
        },
        {
          "internalType": "bool",
          "name": "approved",
          "type": "bool"
        }
      ],
      "name": "setApprovalForAll",
      "outputs": [],
      "stateMutability": "nonpayable",
      "type": "function"
    },
    {
      "inputs": [
        {
          "internalType": "bytes4",
          "name": "interfaceId",
          "type": "bytes4"
        }
      ],
      "name": "supportsInterface",
      "outputs": [
        {
          "internalType": "bool",
          "name": "",
          "type": "bool"
        }
      ],
      "stateMutability": "view",
      "type": "function"
    },
    {
      "inputs": [],
      "name": "symbol",
      "outputs": [
        {
          "internalType": "string",
          "name": "",
          "type": "string"
        }
      ],
      "stateMutability": "view",
      "type": "function"
    },
    {
      "inputs": [
        {
          "internalType": "uint256",
          "name": "",
          "type": "uint256"
        }
      ],
      "name": "tokenURI",
      "outputs": [
        {
          "internalType": "string",
          "name": "",
          "type": "string"
        }
      ],
      "stateMutability": "view",
      "type": "function"
    },
    {
      "inputs": [
        {
          "internalType": "address",
          "name": "from",
          "type": "address"
        },
        {
          "internalType": "address",
          "name": "to",
          "type": "address"
        },
        {
          "internalType": "uint256",
          "name": "tokenId",
          "type": "uint256"
        }
      ],
      "name": "transferFrom",
      "outputs": [],
      "stateMutability": "nonpayable",
      "type": "function"
    }
  ],
  "bytecode": "0x60806040523480156200001157600080fd5b506040518060400160405280600b81526020017f43657274696669636174650000000000000000000000000000000000000000008152506040518060400160405280600381526020017f434552000000000000000000000000000000000000000000000000000000000081525081600090816200008f91906200032c565b508060019081620000a191906200032c565b505050600060078190555062000413565b600081519050919050565b7f4e487b7100000000000000000000000000000000000000000000000000000000600052604160045260246000fd5b7f4e487b7100000000000000000000000000000000000000000000000000000000600052602260045260246000fd5b600060028204905060018216806200013457607f821691505b6020821081036200014a5762000149620000ec565b5b50919050565b60008190508160005260206000209050919050565b60006020601f8301049050919050565b600082821b905092915050565b600060088302620001b47fffffffffffffffffffffffffffffffffffffffffffffffffffffffffffffffff8262000175565b620001c0868362000175565b95508019841693508086168417925050509392505050565b6000819050919050565b6000819050919050565b60006200020d620002076200020184620001d8565b620001e2565b620001d8565b9050919050565b6000819050919050565b6200022983620001ec565b62000241620002388262000214565b84845462000182565b825550505050565b600090565b6200025862000249565b620002658184846200021e565b505050565b5b818110156200028d57620002816000826200024e565b6001810190506200026b565b5050565b601f821115620002dc57620002a68162000150565b620002b18462000165565b81016020851015620002c1578190505b620002d9620002d08562000165565b8301826200026a565b50505b505050565b600082821c905092915050565b60006200030160001984600802620002e1565b1980831691505092915050565b60006200031c8383620002ee565b9150826002028217905092915050565b6200033782620000b2565b67ffffffffffffffff811115620003535762000352620000bd565b5b6200035f82546200011b565b6200036c82828562000291565b600060209050601f831160018114620003a457600084156200038f578287015190505b6200039b85826200030e565b8655506200040b565b601f198416620003b48662000150565b60005b82811015620003de57848901518255600182019150602085019450602081019050620003b7565b86831015620003fe5784890151620003fa601f891682620002ee565b8355505b6001600288020188555050505b505050505050565b6122f580620004236000396000f3fe608060405234801561001057600080fd5b50600436106101005760003560e01c806370a0823111610097578063b88d4fde11610066578063b88d4fde146102ad578063c2229fea146102c9578063c87b56dd146102e7578063e985e9c51461031757610100565b806370a082311461022557806378ce90351461025557806395d89b4114610273578063a22cb4651461029157610100565b8063095ea7b3116100d3578063095ea7b3146101a157806323b872dd146101bd57806342842e0e146101d95780636352211e146101f557610100565b8063010a38f51461010557806301ffc9a71461012357806306fdde0314610153578063081812fc14610171575b600080fd5b61010d610347565b60405161011a9190611595565b60405180910390f35b61013d6004803603810190610138919061161c565b610351565b60405161014a9190611664565b60405180910390f35b61015b610433565b604051610168919061170f565b60405180910390f35b61018b6004803603810190610186919061175d565b6104c5565b60405161019891906117cb565b60405180910390f35b6101bb60048036038101906101b69190611812565b61050b565b005b6101d760048036038101906101d29190611852565b610622565b005b6101f360048036038101906101ee9190611852565b610682565b005b61020f600480360381019061020a919061175d565b6106a2565b60405161021c91906117cb565b60405180910390f35b61023f600480360381019061023a91906118a5565b610728565b60405161024c9190611595565b60405180910390f35b61025d6107df565b60405161026a919061170f565b60405180910390f35b61027b6107fb565b604051610288919061170f565b60405180910390f35b6102ab60048036038101906102a691906118fe565b61088d565b005b6102c760048036038101906102c29190611a73565b6108a3565b005b6102d1610905565b6040516102de9190611595565b60405180910390f35b61030160048036038101906102fc919061175d565b610930565b60405161030e919061170f565b60405180910390f35b610331600480360381019061032c9190611af6565b610952565b60405161033e9190611664565b60405180910390f35b6000600754905090565b60007f80ac58cd000000000000000000000000000000000000000000000000000000007bffffffffffffffffffffffffffffffffffffffffffffffffffffffff1916827bffffffffffffffffffffffffffffffffffffffffffffffffffffffff1916148061041c57507f5b5e139f000000000000000000000000000000000000000000000000000000007bffffffffffffffffffffffffffffffffffffffffffffffffffffffff1916827bffffffffffffffffffffffffffffffffffffffffffffffffffffffff1916145b8061042c575061042b826109e6565b5b9050919050565b60606000805461044290611b65565b80601f016020809104026020016040519081016040528092919081815260200182805461046e90611b65565b80156104bb5780601f10610490576101008083540402835291602001916104bb565b820191906000526020600020905b81548152906001019060200180831161049e57829003601f168201915b5050505050905090565b60006104d082610a50565b6004600083815260200190815260200160002060009054906101000a900473ffffffffffffffffffffffffffffffffffffffff169050919050565b6000610516826106a2565b90508073ffffffffffffffffffffffffffffffffffffffff168373ffffffffffffffffffffffffffffffffffffffff1603610586576040517f08c379a000000000000000000000000000000000000000000000000000000000815260040161057d90611c08565b60405180910390fd5b8073ffffffffffffffffffffffffffffffffffffffff166105a5610a9b565b73ffffffffffffffffffffffffffffffffffffffff1614806105d457506105d3816105ce610a9b565b610952565b5b610613576040517f08c379a000000000000000000000000000000000000000000000000000000000815260040161060a90611c9a565b60405180910390fd5b61061d8383610aa3565b505050565b61063361062d610a9b565b82610b5c565b610672576040517f08c379a000000000000000000000000000000000000000000000000000000000815260040161066990611d2c565b60405180910390fd5b61067d838383610bf1565b505050565b61069d838383604051806020016040528060008152506108a3565b505050565b6000806106ae83610eea565b9050600073ffffffffffffffffffffffffffffffffffffffff168173ffffffffffffffffffffffffffffffffffffffff160361071f576040517f08c379a000000000000000000000000000000000000000000000000000000000815260040161071690611d98565b60405180910390fd5b80915050919050565b60008073ffffffffffffffffffffffffffffffffffffffff168273ffffffffffffffffffffffffffffffffffffffff1603610798576040517f08c379a000000000000000000000000000000000000000000000000000000000815260040161078f90611e2a565b60405180910390fd5b600360008373ffffffffffffffffffffffffffffffffffffffff1673ffffffffffffffffffffffffffffffffffffffff168152602001908152602001600020549050919050565b60405180606001604052806035815260200161228b6035913981565b60606001805461080a90611b65565b80601f016020809104026020016040519081016040528092919081815260200182805461083690611b65565b80156108835780601f1061085857610100808354040283529160200191610883565b820191906000526020600020905b81548152906001019060200180831161086657829003601f168201915b5050505050905090565b61089f610898610a9b565b8383610f27565b5050565b6108b46108ae610a9b565b83610b5c565b6108f3576040517f08c379a00000000000000000000000000000000000000000000000000000000081526004016108ea90611d2c565b60405180910390fd5b6108ff84848484611093565b50505050565b6000610913336007546110ef565b60016007546109229190611e79565b600781905550600754905090565b606060405180606001604052806035815260200161228b603591399050919050565b6000600560008473ffffffffffffffffffffffffffffffffffffffff1673ffffffffffffffffffffffffffffffffffffffff16815260200190815260200160002060008373ffffffffffffffffffffffffffffffffffffffff1673ffffffffffffffffffffffffffffffffffffffff16815260200190815260200160002060009054906101000a900460ff16905092915050565b60007f01ffc9a7000000000000000000000000000000000000000000000000000000007bffffffffffffffffffffffffffffffffffffffffffffffffffffffff1916827bffffffffffffffffffffffffffffffffffffffffffffffffffffffff1916149050919050565b610a598161110d565b610a98576040517f08c379a0000000000000000000000000000000000000000000000000000000008152600401610a8f90611d98565b60405180910390fd5b50565b600033905090565b816004600083815260200190815260200160002060006101000a81548173ffffffffffffffffffffffffffffffffffffffff021916908373ffffffffffffffffffffffffffffffffffffffff160217905550808273ffffffffffffffffffffffffffffffffffffffff16610b16836106a2565b73ffffffffffffffffffffffffffffffffffffffff167f8c5be1e5ebec7d5bd14f71427d1e84f3dd0314c0f7b2291e5b200ac8c7c3b92560405160405180910390a45050565b600080610b68836106a2565b90508073ffffffffffffffffffffffffffffffffffffffff168473ffffffffffffffffffffffffffffffffffffffff161480610baa5750610ba98185610952565b5b80610be857508373ffffffffffffffffffffffffffffffffffffffff16610bd0846104c5565b73ffffffffffffffffffffffffffffffffffffffff16145b91505092915050565b8273ffffffffffffffffffffffffffffffffffffffff16610c11826106a2565b73ffffffffffffffffffffffffffffffffffffffff1614610c67576040517f08c379a0000000000000000000000000000000000000000000000000000000008152600401610c5e90611f1f565b60405180910390fd5b600073ffffffffffffffffffffffffffffffffffffffff168273ffffffffffffffffffffffffffffffffffffffff1603610cd6576040517f08c379a0000000000000000000000000000000000000000000000000000000008152600401610ccd90611fb1565b60405180910390fd5b610ce3838383600161114e565b8273ffffffffffffffffffffffffffffffffffffffff16610d03826106a2565b73ffffffffffffffffffffffffffffffffffffffff1614610d59576040517f08c379a0000000000000000000000000000000000000000000000000000000008152600401610d5090611f1f565b60405180910390fd5b6004600082815260200190815260200160002060006101000a81549073ffffffffffffffffffffffffffffffffffffffff02191690556001600360008573ffffffffffffffffffffffffffffffffffffffff1673ffffffffffffffffffffffffffffffffffffffff168152602001908152602001600020600082825403925050819055506001600360008473ffffffffffffffffffffffffffffffffffffffff1673ffffffffffffffffffffffffffffffffffffffff16815260200190815260200160002060008282540192505081905550816002600083815260200190815260200160002060006101000a81548173ffffffffffffffffffffffffffffffffffffffff021916908373ffffffffffffffffffffffffffffffffffffffff160217905550808273ffffffffffffffffffffffffffffffffffffffff168473ffffffffffffffffffffffffffffffffffffffff167fddf252ad1be2c89b69c2b068fc378daa952ba7f163c4a11628f55a4df523b3ef60405160405180910390a4610ee58383836001611154565b505050565b60006002600083815260200190815260200160002060009054906101000a900473ffffffffffffffffffffffffffffffffffffffff169050919050565b8173ffffffffffffffffffffffffffffffffffffffff168373ffffffffffffffffffffffffffffffffffffffff1603610f95576040517f08c379a0000000000000000000000000000000000000000000000000000000008152600401610f8c9061201d565b60405180910390fd5b80600560008573ffffffffffffffffffffffffffffffffffffffff1673ffffffffffffffffffffffffffffffffffffffff16815260200190815260200160002060008473ffffffffffffffffffffffffffffffffffffffff1673ffffffffffffffffffffffffffffffffffffffff16815260200190815260200160002060006101000a81548160ff0219169083151502179055508173ffffffffffffffffffffffffffffffffffffffff168373ffffffffffffffffffffffffffffffffffffffff167f17307eab39ab6107e8899845ad3d59bd9653f200f220920489ca2b5937696c31836040516110869190611664565b60405180910390a3505050565b61109e848484610bf1565b6110aa8484848461115a565b6110e9576040517f08c379a00000000000000000000000000000000000000000000000000000000081526004016110e0906120af565b60405180910390fd5b50505050565b6111098282604051806020016040528060008152506112e1565b5050565b60008073ffffffffffffffffffffffffffffffffffffffff1661112f83610eea565b73ffffffffffffffffffffffffffffffffffffffff1614159050919050565b50505050565b50505050565b600061117b8473ffffffffffffffffffffffffffffffffffffffff1661133c565b156112d4578373ffffffffffffffffffffffffffffffffffffffff1663150b7a026111a4610a9b565b8786866040518563ffffffff1660e01b81526004016111c69493929190612124565b6020604051808303816000875af192505050801561120257506040513d601f19601f820116820180604052508101906111ff9190612185565b60015b611284573d8060008114611232576040519150601f19603f3d011682016040523d82523d6000602084013e611237565b606091505b50600081510361127c576040517f08c379a0000000000000000000000000000000000000000000000000000000008152600401611273906120af565b60405180910390fd5b805181602001fd5b63150b7a0260e01b7bffffffffffffffffffffffffffffffffffffffffffffffffffffffff1916817bffffffffffffffffffffffffffffffffffffffffffffffffffffffff1916149150506112d9565b600190505b949350505050565b6112eb838361135f565b6112f8600084848461115a565b611337576040517f08c379a000000000000000000000000000000000000000000000000000000000815260040161132e906120af565b60405180910390fd5b505050565b6000808273ffffffffffffffffffffffffffffffffffffffff163b119050919050565b600073ffffffffffffffffffffffffffffffffffffffff168273ffffffffffffffffffffffffffffffffffffffff16036113ce576040517f08c379a00000000000000000000000000000000000000000000000000000000081526004016113c5906121fe565b60405180910390fd5b6113d78161110d565b15611417576040517f08c379a000000000000000000000000000000000000000000000000000000000815260040161140e9061226a565b60405180910390fd5b61142560008383600161114e565b61142e8161110d565b1561146e576040517f08c379a00000000000000000000000000000000000000000000000000000000081526004016114659061226a565b60405180910390fd5b6001600360008473ffffffffffffffffffffffffffffffffffffffff1673ffffffffffffffffffffffffffffffffffffffff16815260200190815260200160002060008282540192505081905550816002600083815260200190815260200160002060006101000a81548173ffffffffffffffffffffffffffffffffffffffff021916908373ffffffffffffffffffffffffffffffffffffffff160217905550808273ffffffffffffffffffffffffffffffffffffffff16600073ffffffffffffffffffffffffffffffffffffffff167fddf252ad1be2c89b69c2b068fc378daa952ba7f163c4a11628f55a4df523b3ef60405160405180910390a4611578600083836001611154565b5050565b6000819050919050565b61158f8161157c565b82525050565b60006020820190506115aa6000830184611586565b92915050565b6000604051905090565b600080fd5b600080fd5b60007fffffffff0000000000000000000000000000000000000000000000000000000082169050919050565b6115f9816115c4565b811461160457600080fd5b50565b600081359050611616816115f0565b92915050565b600060208284031215611632576116316115ba565b5b600061164084828501611607565b91505092915050565b60008115159050919050565b61165e81611649565b82525050565b60006020820190506116796000830184611655565b92915050565b600081519050919050565b600082825260208201905092915050565b60005b838110156116b957808201518184015260208101905061169e565b60008484015250505050565b6000601f19601f8301169050919050565b60006116e18261167f565b6116eb818561168a565b93506116fb81856020860161169b565b611704816116c5565b840191505092915050565b6000602082019050818103600083015261172981846116d6565b905092915050565b61173a8161157c565b811461174557600080fd5b50565b60008135905061175781611731565b92915050565b600060208284031215611773576117726115ba565b5b600061178184828501611748565b91505092915050565b600073ffffffffffffffffffffffffffffffffffffffff82169050919050565b60006117b58261178a565b9050919050565b6117c5816117aa565b82525050565b60006020820190506117e060008301846117bc565b92915050565b6117ef816117aa565b81146117fa57600080fd5b50565b60008135905061180c816117e6565b92915050565b60008060408385031215611829576118286115ba565b5b6000611837858286016117fd565b925050602061184885828601611748565b9150509250929050565b60008060006060848603121561186b5761186a6115ba565b5b6000611879868287016117fd565b935050602061188a868287016117fd565b925050604061189b86828701611748565b9150509250925092565b6000602082840312156118bb576118ba6115ba565b5b60006118c9848285016117fd565b91505092915050565b6118db81611649565b81146118e657600080fd5b50565b6000813590506118f8816118d2565b92915050565b60008060408385031215611915576119146115ba565b5b6000611923858286016117fd565b9250506020611934858286016118e9565b9150509250929050565b600080fd5b600080fd5b7f4e487b7100000000000000000000000000000000000000000000000000000000600052604160045260246000fd5b611980826116c5565b810181811067ffffffffffffffff8211171561199f5761199e611948565b5b80604052505050565b60006119b26115b0565b90506119be8282611977565b919050565b600067ffffffffffffffff8211156119de576119dd611948565b5b6119e7826116c5565b9050602081019050919050565b82818337600083830152505050565b6000611a16611a11846119c3565b6119a8565b905082815260208101848484011115611a3257611a31611943565b5b611a3d8482856119f4565b509392505050565b600082601f830112611a5a57611a5961193e565b5b8135611a6a848260208601611a03565b91505092915050565b60008060008060808587031215611a8d57611a8c6115ba565b5b6000611a9b878288016117fd565b9450506020611aac878288016117fd565b9350506040611abd87828801611748565b925050606085013567ffffffffffffffff811115611ade57611add6115bf565b5b611aea87828801611a45565b91505092959194509250565b60008060408385031215611b0d57611b0c6115ba565b5b6000611b1b858286016117fd565b9250506020611b2c858286016117fd565b9150509250929050565b7f4e487b7100000000000000000000000000000000000000000000000000000000600052602260045260246000fd5b60006002820490506001821680611b7d57607f821691505b602082108103611b9057611b8f611b36565b5b50919050565b7f4552433732313a20617070726f76616c20746f2063757272656e74206f776e6560008201527f7200000000000000000000000000000000000000000000000000000000000000602082015250565b6000611bf260218361168a565b9150611bfd82611b96565b604082019050919050565b60006020820190508181036000830152611c2181611be5565b9050919050565b7f4552433732313a20617070726f76652063616c6c6572206973206e6f7420746f60008201527f6b656e206f776e6572206f7220617070726f76656420666f7220616c6c000000602082015250565b6000611c84603d8361168a565b9150611c8f82611c28565b604082019050919050565b60006020820190508181036000830152611cb381611c77565b9050919050565b7f4552433732313a2063616c6c6572206973206e6f7420746f6b656e206f776e6560008201527f72206f7220617070726f76656400000000000000000000000000000000000000602082015250565b6000611d16602d8361168a565b9150611d2182611cba565b604082019050919050565b60006020820190508181036000830152611d4581611d09565b9050919050565b7f4552433732313a20696e76616c696420746f6b656e2049440000000000000000600082015250565b6000611d8260188361168a565b9150611d8d82611d4c565b602082019050919050565b60006020820190508181036000830152611db181611d75565b9050919050565b7f4552433732313a2061646472657373207a65726f206973206e6f74206120766160008201527f6c6964206f776e65720000000000000000000000000000000000000000000000602082015250565b6000611e1460298361168a565b9150611e1f82611db8565b604082019050919050565b60006020820190508181036000830152611e4381611e07565b9050919050565b7f4e487b7100000000000000000000000000000000000000000000000000000000600052601160045260246000fd5b6000611e848261157c565b9150611e8f8361157c565b9250828201905080821115611ea757611ea6611e4a565b5b92915050565b7f4552433732313a207472616e736665722066726f6d20696e636f72726563742060008201527f6f776e6572000000000000000000000000000000000000000000000000000000602082015250565b6000611f0960258361168a565b9150611f1482611ead565b604082019050919050565b60006020820190508181036000830152611f3881611efc565b9050919050565b7f4552433732313a207472616e7366657220746f20746865207a65726f2061646460008201527f7265737300000000000000000000000000000000000000000000000000000000602082015250565b6000611f9b60248361168a565b9150611fa682611f3f565b604082019050919050565b60006020820190508181036000830152611fca81611f8e565b9050919050565b7f4552433732313a20617070726f766520746f2063616c6c657200000000000000600082015250565b600061200760198361168a565b915061201282611fd1565b602082019050919050565b6000602082019050818103600083015261203681611ffa565b9050919050565b7f4552433732313a207472616e7366657220746f206e6f6e20455243373231526560008201527f63656976657220696d706c656d656e7465720000000000000000000000000000602082015250565b600061209960328361168a565b91506120a48261203d565b604082019050919050565b600060208201905081810360008301526120c88161208c565b9050919050565b600081519050919050565b600082825260208201905092915050565b60006120f6826120cf565b61210081856120da565b935061211081856020860161169b565b612119816116c5565b840191505092915050565b600060808201905061213960008301876117bc565b61214660208301866117bc565b6121536040830185611586565b818103606083015261216581846120eb565b905095945050505050565b60008151905061217f816115f0565b92915050565b60006020828403121561219b5761219a6115ba565b5b60006121a984828501612170565b91505092915050565b7f4552433732313a206d696e7420746f20746865207a65726f2061646472657373600082015250565b60006121e860208361168a565b91506121f3826121b2565b602082019050919050565b60006020820190508181036000830152612217816121db565b9050919050565b7f4552433732313a20746f6b656e20616c7265616479206d696e74656400000000600082015250565b6000612254601c8361168a565b915061225f8261221e565b602082019050919050565b6000602082019050818103600083015261228381612247565b905091905056fe697066733a2f2f516d5644336d415a6554595a426770486454484c507476346269466d42414659485535367851416b4c3939363564a2646970667358221220bb9ad816837237ffccb23191ddc7907ae2af228b9a472d18eba9338796fe484b64736f6c63430008120033",
  "linkReferences": {},
  "deployedLinkReferences": {}
}