{
  "address": "0x9fE46736679d2D9a65F0992F2272dE9f3c7fa6e0",
  "abi": [
    {
      "inputs": [
        {
          "internalType": "uint256",
          "name": "_minimum_bid",
          "type": "uint256"
        },
        {
          "internalType": "uint256",
          "name": "_duration",
          "type": "uint256"
        }
      ],
      "stateMutability": "nonpayable",
      "type": "constructor"
    },
    {
      "inputs": [],
      "name": "bid",
      "outputs": [],
      "stateMutability": "payable",
      "type": "function"
    },
    {
      "inputs": [
        {
          "internalType": "address",
          "name": "_address",
          "type": "address"
        }
      ],
      "name": "getBiddersBid",
      "outputs": [
        {
          "internalType": "uint256",
          "name": "",
          "type": "uint256"
        }
      ],
      "stateMutability": "view",
      "type": "function"
    },
    {
      "inputs": [],
      "name": "getHighestBid",
      "outputs": [
        {
          "internalType": "uint256",
          "name": "",
          "type": "uint256"
        }
      ],
      "stateMutability": "view",
      "type": "function"
    },
    {
      "inputs": [],
      "name": "getHighestBidder",
      "outputs": [
        {
          "internalType": "address",
          "name": "",
          "type": "address"
        }
      ],
      "stateMutability": "view",
      "type": "function"
    },
    {
      "inputs": [
        {
          "internalType": "uint256",
          "name": "_endTime",
          "type": "uint256"
        }
      ],
      "name": "putEndTime",
      "outputs": [],
      "stateMutability": "nonpayable",
      "type": "function"
    },
    {
      "inputs": [
        {
          "internalType": "address payable",
          "name": "_address",
          "type": "address"
        }
      ],
      "name": "withdrawBid",
      "outputs": [],
      "stateMutability": "nonpayable",
      "type": "function"
    }
  ],
  "transactionHash": "0x8bb54fbc4a53df0880b851dd72e609bb7a9ae5c5447919a48ed3b23ba53281a2",
  "args": [
    "1000000000000000000",
    1000
  ],
  "numDeployments": 1,
  "solcInputHash": "b6be9c6cf8a7b3951961c535d2f3c350",
  "bytecode": "0x60806040524260035534801561001457600080fd5b50604051610aca380380610aca83398181016040528101906100369190610093565b816005819055508060035461004b9190610102565b6004819055505050610136565b600080fd5b6000819050919050565b6100708161005d565b811461007b57600080fd5b50565b60008151905061008d81610067565b92915050565b600080604083850312156100aa576100a9610058565b5b60006100b88582860161007e565b92505060206100c98582860161007e565b9150509250929050565b7f4e487b7100000000000000000000000000000000000000000000000000000000600052601160045260246000fd5b600061010d8261005d565b91506101188361005d565b92508282019050808211156101305761012f6100d3565b5b92915050565b610985806101456000396000f3fe6080604052600436106100545760003560e01c80623495a414610059578063058f4629146100845780631998aeef146100c15780634979440a146100cb5780634ede3648146100f65780637f6a9d501461011f575b600080fd5b34801561006557600080fd5b5061006e610148565b60405161007b9190610548565b60405180910390f35b34801561009057600080fd5b506100ab60048036038101906100a69190610594565b610172565b6040516100b891906105da565b60405180910390f35b6100c96101ba565b005b3480156100d757600080fd5b506100e06103a1565b6040516100ed91906105da565b60405180910390f35b34801561010257600080fd5b5061011d60048036038101906101189190610633565b6103ab565b005b34801561012b57600080fd5b506101466004803603810190610141919061068c565b6104fd565b005b6000600260009054906101000a900473ffffffffffffffffffffffffffffffffffffffff16905090565b60008060008373ffffffffffffffffffffffffffffffffffffffff1673ffffffffffffffffffffffffffffffffffffffff168152602001908152602001600020549050919050565b6000346000803373ffffffffffffffffffffffffffffffffffffffff1673ffffffffffffffffffffffffffffffffffffffff1681526020019081526020016000205461020691906106e8565b905060055434101561024d576040517f08c379a00000000000000000000000000000000000000000000000000000000081526004016102449061079f565b60405180910390fd5b6004544210610291576040517f08c379a00000000000000000000000000000000000000000000000000000000081526004016102889061080b565b60405180910390fd5b60015481116102d5576040517f08c379a00000000000000000000000000000000000000000000000000000000081526004016102cc9061089d565b60405180910390fd5b806000803373ffffffffffffffffffffffffffffffffffffffff1673ffffffffffffffffffffffffffffffffffffffff168152602001908152602001600020819055506000803373ffffffffffffffffffffffffffffffffffffffff1673ffffffffffffffffffffffffffffffffffffffff1681526020019081526020016000205460018190555033600260006101000a81548173ffffffffffffffffffffffffffffffffffffffff021916908373ffffffffffffffffffffffffffffffffffffffff16021790555050565b6000600154905090565b60008060008373ffffffffffffffffffffffffffffffffffffffff1673ffffffffffffffffffffffffffffffffffffffff1681526020019081526020016000205411156104fa576001546000808373ffffffffffffffffffffffffffffffffffffffff1673ffffffffffffffffffffffffffffffffffffffff1681526020019081526020016000205403610474576040517f08c379a000000000000000000000000000000000000000000000000000000000815260040161046b9061092f565b60405180910390fd5b8073ffffffffffffffffffffffffffffffffffffffff166108fc6000808473ffffffffffffffffffffffffffffffffffffffff1673ffffffffffffffffffffffffffffffffffffffff168152602001908152602001600020549081150290604051600060405180830381858888f193505050501580156104f8573d6000803e3d6000fd5b505b50565b8060048190555050565b600073ffffffffffffffffffffffffffffffffffffffff82169050919050565b600061053282610507565b9050919050565b61054281610527565b82525050565b600060208201905061055d6000830184610539565b92915050565b600080fd5b61057181610527565b811461057c57600080fd5b50565b60008135905061058e81610568565b92915050565b6000602082840312156105aa576105a9610563565b5b60006105b88482850161057f565b91505092915050565b6000819050919050565b6105d4816105c1565b82525050565b60006020820190506105ef60008301846105cb565b92915050565b600061060082610507565b9050919050565b610610816105f5565b811461061b57600080fd5b50565b60008135905061062d81610607565b92915050565b60006020828403121561064957610648610563565b5b60006106578482850161061e565b91505092915050565b610669816105c1565b811461067457600080fd5b50565b60008135905061068681610660565b92915050565b6000602082840312156106a2576106a1610563565b5b60006106b084828501610677565b91505092915050565b7f4e487b7100000000000000000000000000000000000000000000000000000000600052601160045260246000fd5b60006106f3826105c1565b91506106fe836105c1565b9250828201905080821115610716576107156106b9565b5b92915050565b600082825260208201905092915050565b7f4269642073686f756c642062652067726561746572206f7220657175616c207460008201527f6f206d696e696d756d2062696400000000000000000000000000000000000000602082015250565b6000610789602d8361071c565b91506107948261072d565b604082019050919050565b600060208201905081810360008301526107b88161077c565b9050919050565b7f5468652061756374696f6e2068617320656e6465640000000000000000000000600082015250565b60006107f560158361071c565b9150610800826107bf565b602082019050919050565b60006020820190508181036000830152610824816107e8565b9050919050565b7f546865206269642073686f756c6420626520686967686572207468616e20746860008201527f6520686967686573742062696400000000000000000000000000000000000000602082015250565b6000610887602d8361071c565b91506108928261082b565b604082019050919050565b600060208201905081810360008301526108b68161087a565b9050919050565b7f48696768657374206269646465722063616e6e6f74207769746864726177206660008201527f726f6d2061756374696f6e000000000000000000000000000000000000000000602082015250565b6000610919602b8361071c565b9150610924826108bd565b604082019050919050565b600060208201905081810360008301526109488161090c565b905091905056fea264697066735822122099c858369f06c0adfac04ea6ed540ce4b101e796986b64e2413150ba84f1fbb864736f6c63430008120033",
  "devdoc": {
    "kind": "dev",
    "methods": {},
    "version": 1
  },
  "userdoc": {
    "kind": "user",
    "methods": {},
    "version": 1
  },
  "storageLayout": {
    "storage": [
      {
        "astId": 5,
        "contract": "contracts/auction.sol:auction",
        "label": "bidderData",
        "offset": 0,
        "slot": "0",
        "type": "t_mapping(t_address,t_uint256)"
      },
      {
        "astId": 7,
        "contract": "contracts/auction.sol:auction",
        "label": "highestBid",
        "offset": 0,
        "slot": "1",
        "type": "t_uint256"
      },
      {
        "astId": 9,
        "contract": "contracts/auction.sol:auction",
        "label": "highestBidderAddress",
        "offset": 0,
        "slot": "2",
        "type": "t_address"
      },
      {
        "astId": 13,
        "contract": "contracts/auction.sol:auction",
        "label": "startTime",
        "offset": 0,
        "slot": "3",
        "type": "t_uint256"
      },
      {
        "astId": 15,
        "contract": "contracts/auction.sol:auction",
        "label": "endTime",
        "offset": 0,
        "slot": "4",
        "type": "t_uint256"
      },
      {
        "astId": 17,
        "contract": "contracts/auction.sol:auction",
        "label": "minimum_bid",
        "offset": 0,
        "slot": "5",
        "type": "t_uint256"
      }
    ],
    "types": {
      "t_address": {
        "encoding": "inplace",
        "label": "address",
        "numberOfBytes": "20"
      },
      "t_mapping(t_address,t_uint256)": {
        "encoding": "mapping",
        "key": "t_address",
        "label": "mapping(address => uint256)",
        "numberOfBytes": "32",
        "value": "t_uint256"
      },
      "t_uint256": {
        "encoding": "inplace",
        "label": "uint256",
        "numberOfBytes": "32"
      }
    }
  }
}